:100000000C9434010C9465010C9465010C94650109
:100010000C9465010C9465010C9465010C946501C8
:100020000C9465010C9465010C9465010C946501B8
:100030000C9465010C9465010C9465010C946501A8
:100040000C9465010C9465010C9465010C94650198
:100050000C94F5060C9465010C9465010C948705CD
:100060000C9465010C9465010C9465010C94650178
:100070000C9465010C9465010C9465010C94650168
:100080000C9465010C9465010C9465010C94650158
:100090000C9465010C9465010C9465010C94D105D8
:1000A0000C9465010C9465010C9465010C94650138
:1000B0000C9465010C9465010C9465010C94650128
:1000C0000C9465010C9465010C9465010C94650118
:1000D0000C9465010C9465010C9465010C94650108
:1000E0000C9465010C944C020C9486010C94D4027F
:1000F0000C9460020C943A020C9413020C940903C1
:100100000C9434020C9452020C94F7020C941E07C7
:100110000C9444020C940E020C94B1010C94250230
:100120000C94FE020C9448020C941B030C941A03CA
:100130000C941E030C942D020C94D5020C946402B2
:100140000C9487010C9456020C943E020C943102DC
:100150000C940E050C94E4020C945A020C9429029F
:1001600000000A0B02090C0D0E0807030401000031
:10017000000000000000000000000000000000007F
:10018000000000000000000000000000121110003C
:10019000000000000000000000000000000000005F
:1001A00000000000000000002200250028002B00B5
:1001B0002E003100340002010000050108010B018E
:1001C00000002100240027002A002D003000330009
:1001D00001010000040107010A01050505050705E5
:1001E00008080808020202020A0A080804040404B3
:1001F00001010101010101010303030303030303DF
:10020000040707070C0C0C0C0C0C0C0C020202026D
:1002100006060606060606060B0B0B0B0B0B0B0B56
:100220000102102020080810204010204080020108
:1002300002010804020101020408102040808040ED
:1002400020100804020180040201804020100804EC
:10025000020108040201010204081020408001028A
:100260000408102040801E0711241FBECFEFD1E2EA
:10027000DEBFCDBF00E00CBF12E0A0E0B2E0E8EBD3
:10028000F0E100E00BBF02C007900D92A633B1076A
:10029000D9F723E0A6E3B2E001C01D92A130B20776
:1002A000E1F711E0C4E3D1E000E006C021970109C5
:1002B000802FFE010E945208C333D10780E0080757
:1002C000A9F70E944C070C945A080C94000090E087
:1002D000FC01E05EFD4F249186529E4FFC0184910B
:1002E000882399F090E0880F991FFC01E054FE4F9D
:1002F000A591B491FC01EA55FE4F859194918FB779
:10030000F894EC91E22BEC938FBF08950895CF936E
:10031000DF93AC01E091D702F091D8023097F1F071
:100320009091D6028091D5029817C0F090E0292FC5
:1003300030E02617370754F4D901AA5CBD4F240FCB
:10034000351FE90128812C939F5FF1CF1092D602CF
:100350006093D502CB01DF91CF911994DF91CF91BA
:100360000895AF92BF92CF92DF92EF92FF920F93D8
:100370001F93CF93DF936C017B018B01040F151F3B
:10038000EB015E01AE18BF08C017D10759F06991A3
:10039000D601ED91FC910190F081E02DC6011995F7
:1003A000892B79F7C501DF91CF911F910F91FF90B4
:1003B000EF90DF90CF90BF90AF900895282F30E05E
:1003C000F901E05AFE4F9491F901E05EFD4F44912E
:1003D00026523E4FF9012491222309F435C0992376
:1003E00011F191509231F8F4E92FF0E08827E450B0
:1003F000FE4F8F4F0C9452082D0231020E0225023F
:100400002902130234023A023E02440248024C021C
:100410005202560213025A02600264028091800066
:100420008F7780938000E22FF0E0EE0FFF1FEA55F8
:10043000FE4FA591B4918FB7F894EC91611148C02B
:1004400040954E234C938FBF0895809180008F7DFF
:10045000E8CF80918000877FE4CF84B58F7784BD1B
:10046000E2CF84B58F7DFBCF8091B0008F778093F2
:10047000B000D9CF8091B0008F7DF9CF80919000EE
:100480008F7780939000CFCF809190008F7DF9CFB0
:1004900080919000877FF5CF8091A0008F77809327
:1004A000A000C1CF8091A0008F7DF9CF8091A000E6
:1004B000877FF5CF809120018F7780932001B3CF84
:1004C000809120018F7DF9CF80912001877FF5CF2A
:1004D0004E2BB8CF3FB7F8948091CB029091CC02CD
:1004E000A091CD02B091CE0226B5A89B05C02F3FAA
:1004F00019F00196A11DB11D3FBFBA2FA92F982F4A
:100500008827BC01CD01620F711D811D911D42E044
:10051000660F771F881F991F4A95D1F7089520917C
:100520007C02260F3327331F21323105ECF4209152
:10053000A002FC0190E080E0243069F082E00895A0
:10054000A0917C022191AC01445A5D4FA40FB52FBC
:10055000B11D2C930196861798F380917C02680F49
:1005600060937C0280E0089581E008951092A002DB
:1005700081E08093A2021092A10261E084E10E94D6
:10058000DE0161E085E10E94DE01E9EBF0E08081BF
:100590008E7F808380818D7F808388E48093B80004
:1005A00085E48093BC0008950895E091D60280917F
:1005B000D502E81730F4F0E0EA5CFD4F808190E06E
:1005C00008958FEF9FEF08959091D6028091D50204
:1005D0002FEF3FEF981748F4E92FF0E0EA5CFD4F6A
:1005E000208130E09F5F9093D602C90108958091E9
:1005F000D5029091D602891B990B0895CF93DF9372
:10060000CB01EA01642F0E948F02CE01DF91CF91CE
:100610000895CF93DF931F92CDB7DEB7698361E072
:10062000CE0101960E948F0281E090E00F90DF9151
:10063000CF910895089590E080E008958F929F9261
:10064000AF92BF92CF92DF92EF92FF928DED92E048
:100650000E94E4029093DC028093DB028DED92E035
:100660000E94E4029093DA028093D9020E946A0207
:100670004B015C0184E6C82ED12CE12CF12C0E94A8
:100680006A02681979098A099B09683E73408105E5
:100690009105A8F321E0C21AD108E108F10888EE1B
:1006A000880E83E0981EA11CB11CC114D104E10482
:1006B000F10429F7FF90EF90DF90CF90BF90AF90BB
:1006C0009F908F9008958F929F92AF92BF920F93B9
:1006D0001F93CF93DF93CDB7DEB7A1970FB6F894F2
:1006E000DEBF0FBECDBF19A2423008F44AE08E0132
:1006F0000F5D1F4F842E912CB12CA12CA5019401CC
:100700000E943008E62FB901CA01EA3044F5E05DE5
:10071000D801EE938D01232B242B252B79F790E024
:1007200080E0109769F0FD0101900020E9F7319712
:10073000AF014A1B5B0BBD0189EE92E00E94B10143
:10074000A1960FB6F894DEBF0FBECDBFDF91CF915B
:100750001F910F91BF90AF909F908F900895E95C8B
:10076000D7CFFC0101900020E9F73197AF01481B7A
:10077000590BBC0189EE92E00C94B101CF93DF9349
:10078000EC0160E08E810E94DE0161E08E810E94BA
:10079000DE0160E08E810E94DE018BE891E001972E
:1007A000F1F7DF91CF910895CF92DF92EF92FF9210
:1007B0000F931F93CF93DF936C017C0187E0E80ECA
:1007C000F11CD0E0C0E0062F10E0B8010C2E02C0F2
:1007D000759567950A94E2F76170F70181917F0141
:1007E0000E94DE012196C430D10579F7C601DF9160
:1007F000CF911F910F91FF90EF90DF90CF900C94CD
:10080000BE03CF92DF92EF92FF920F931F93CF938D
:10081000DF93EC01F62E642F8C810E94DE018D8126
:100820008F3F19F060E00E94DE010F2D10E08F85F0
:1008300084FF25C06E0187E0C80ED11CF12CE12C8D
:10084000B8010E2C02C0759567950A94E2F76170A5
:10085000F60181916F010E94DE01FFEFEF1AFF0A9E
:1008600088E0E816F10461F7CE01DF91CF911F9186
:100870000F91FF90EF90DF90CF900C94BE03B801E2
:1008800084E0759567958A95E1F7CE010E94D403BF
:100890006F2DCE01DF91CF911F910F91FF90EF90BF
:1008A000DF90CF900C94D40340E0682F89EE92E063
:1008B0000C94010481E00E9454048BE39FE10197B2
:1008C000F1F70895CF93DF93823029F49091F802E5
:1008D00098609093F8028093FC021092FD0280E4ED
:1008E0008093FE0280E18093FF0280E58093000305
:1008F0008091ED020E9467018091EE028F3F11F01E
:100900000E9467018091EF020E946701C9EED2E068
:100910009E01295E32408091F80284FD0AC084E085
:1009200090E02196281739073CF48E810E946701D8
:10093000EFCF88E090E0F5CF8BE39DE00197F1F7F2
:1009400060E08091ED020E94DE0160E08091EF02A4
:100950000E94DE018091EE028F3F19F060E00E945C
:10096000DE018091F80284FD34C063E089EE92E0FC
:100970000E94D403CBE4D6E4CE010197F1F763E003
:1009800089EE92E00E94D4032197F1F763E089EEAB
:1009900092E00E94D40383E592E00197F1F762E0D0
:1009A00089EE92E00E94D4038091F80280620E9456
:1009B000540484E08093F9028CE00E9454040E9465
:1009C0005A0482E08093FA0286E0DF91CF910C9482
:1009D000540480620E9454048BE496E40197F1F77A
:1009E0008091F80280620E94540483E592E00197AE
:1009F000F1F78091F80280620E945404D5CF909163
:100A0000FC02691710F06FEF690FE62FF0E0E75175
:100A1000FD4F9489890F80680C94540441E00E9432
:100A2000010481E090E00895CF92DF92EF92FF926F
:100A30006B017C0141E06DE289EE92E00E940104CD
:100A400066277727CB016C197D098E099F094AE03B
:100A50000E9463030196FF90EF90DF90CF9008957E
:100A6000CF93DF9385ED8093BC00809158029091E5
:100A70005902A0915A02B0915B020796A11DB11DC7
:100A800023E0B695A795979587952A95D1F720915C
:100A9000BC0024FD03C01092A00236C04091580251
:100AA0005091590260915A0270915B02452B462B7E
:100AB000472B69F30097A105B10541F02AE22A9579
:100AC000F1F700C00197A109B109E1CF8091570268
:100AD00091E0909356028823B9F0C091B800D0916C
:100AE000BA008091BC008A7B8093BC0060E084E106
:100AF0000E94DE0160E085E10E94DE010E94B602F4
:100B0000D093BA00C093B800DF91CF9108951F929F
:100B10000F920FB60F9211242F933F938F939F93B1
:100B2000AF93BF938091C7029091C802A091C90270
:100B3000B091CA023091C60223E0230F2D3758F539
:100B40000196A11DB11D2093C6028093C702909308
:100B5000C802A093C902B093CA028091CB029091BF
:100B6000CC02A091CD02B091CE020196A11DB11D83
:100B70008093CB029093CC02A093CD02B093CE028F
:100B8000BF91AF919F918F913F912F910F900FBE89
:100B90000F901F90189526E8230F0296A11DB11DF6
:100BA000D2CF1F920F920FB60F9211240BB60F9255
:100BB0002F933F934F935F936F937F938F939F9365
:100BC000AF93BF93EF93FF938091B900887F8036F6
:100BD00009F44DC008F040C0883209F4A9C028F5D6
:100BE000803109F49DC0C8F4882309F4FBC0883023
:100BF00009F496C0FF91EF91BF91AF919F918F91B2
:100C00007F916F915F914F913F912F910F900BBE0C
:100C10000F900FBE0F901F901895883109F488C06F
:100C2000803241F780939F0214C0803409F49DC044
:100C300040F48033B9F38833E9F680939F0285EC62
:100C4000B0C0803509F485C0883509F496C0883471
:100C500089F60E943005CECF883909F48CC038F56A
:100C6000883729F050F4883611F0803719F683E080
:100C70008093A00210929E0257C0883809F47BC06E
:100C8000803919F0803809F0B5CF80919E0280320A
:100C900008F071C0E0919E0281E08E0F80939E0269
:100CA0008091BB00F0E0E258FD4F80833DC0803B67
:100CB00039F0E0F4803A09F479C0883A09F09ACF23
:100CC00084E08093A00210927D0210927C02E09159
:100CD000D102F091D202199580917C0281110FC04E
:100CE00081E080937C0210925C0209C0803C09F490
:100CF000A6CF883C09F4A3CF883B09F07BCFE091D5
:100D00007D0281E08E0F80937D02F0E0E45AFD4F7A
:100D100080818093BB0090917D0280917C0229C0EC
:100D20008091C5028093BB0085EC8093BC0062CFAC
:100D30009091C4028091C302981758F5E091C402C3
:100D400081E08E0F8093C402F0E0ED55FD4F80816D
:100D5000E9CFE091C40281E08E0F8093C4028091BC
:100D6000BB00F0E0ED55FD4F80839091C40280916F
:100D7000C3029817C8F285E8D8CFE091C40281E099
:100D80008E0F8093C4028091BB00F0E0ED55FD4FC3
:100D900080838091A20281115CCF81E08093A102C7
:100DA00084EA8093BC001092A00224CF85EC80934B
:100DB000BC001092A00280919E02803230F4E0913B
:100DC0009E02F0E0E258FD4F108260919E0270E0BA
:100DD000E091CF02F091D0028EE792E01995109247
:100DE0009E0208CF10929F0234CF1F920F920FB62F
:100DF0000F9211240BB60F922F933F934F935F9353
:100E00006F937F938F939F93AF93BF93EF93FF93D2
:100E1000F0E0E0E01995FF91EF91BF91AF919F91C4
:100E20008F917F916F915F914F913F912F910F9093
:100E30000BBE0F900FBE0F901F901895EDEDF2E0D6
:100E40001382128288EE93E0A0E0B0E08483958361
:100E5000A683B78384E092E091838083E9EEF2E099
:100E60001382128286E192E09183808388E08483FA
:100E70008FEF858389E086838AE087838BE0808794
:100E80008CE081878DE0828713861486158616860E
:100E9000178681E00C946204789484B5826084BDE6
:100EA00084B5816084BD85B5826085BD85B581606E
:100EB00085BD80916E00816080936E0010928100EC
:100EC00080918100826080938100809181008160A7
:100ED0008093810080918000816080938000809168
:100EE000B10084608093B1008091B00081608093F4
:100EF000B000809191008260809391008091910078
:100F00008160809391008091900081608093900037
:100F10008091A10082608093A1008091A1008160F6
:100F20008093A1008091A00081608093A0008091B7
:100F30002101826080932101809121018160809351
:100F400021018091200181608093200180917A00AD
:100F5000846080937A0080917A00826080937A0026
:100F600080917A00816080937A0080917A00806815
:100F700080937A001092C10082E00E9462040E9475
:100F80005A041092D6021092D5021092D4021092F6
:100F9000D3020E94B60286E891E09093D202809339
:100FA000D10287E891E09093D0028093CF0282E152
:100FB0008093BA008EE193E09093D8028093D70299
:100FC000C0E0D0E060E080E00E94FF048EE192E0AB
:100FD0000E94B10361E080E00E94FF046091DB02A7
:100FE0007091DC02072E000C880B990B97FF30C024
:100FF0000E94140561E084E00E94FF048DE292E00B
:101000000E94B10361E08AE00E94FF046091D9026E
:101010007091DA02072E000C880B990B97FF1CC009
:101020000E94140561E08DE00E94FF0482E392E0DB
:101030000E94B1038091D9029091DA02CD9711F408
:101040000E945A04209709F4BDCF0E940000BACF35
:101050004AE00E946303CECF4AE00E946303E2CFDE
:10106000A1E21A2EAA1BBB1BFD010DC0AA1FBB1FAC
:10107000EE1FFF1FA217B307E407F50720F0A21B1E
:10108000B30BE40BF50B661F771F881F991F1A948B
:1010900069F760957095809590959B01AC01BD01B5
:1010A000CF010895EE0FFF1F881F8BBF0790F691A9
:0810B000E02D1994F894FFCF24
:1010B800000000000903FE021B03D402F702E40249
:1010C800D502000000000E05B1011B031A03467289
:1010D80065632E20636172646961636100207070CA
:0610E8006D002073000002
:00000001FF
