:100000000C943B010C941E050C94F3040C94C8044E
:100010000C949D040C9472040C9447040C941C04DE
:100020000C94F1030C946C010C946C010C946C0115
:100030000C946C010C946C010C946C010C946C018C
:100040000C946C010C946C010C946C010C946C017C
:100050000C9449050C946C010C946C010C944703AE
:100060000C946C010C94BB030C9491030C946C01E4
:100070000C946C010C946C010C946C010C946C014C
:100080000C946C010C946C010C946C010C946C013C
:100090000C946C010C946C010C946C010C946C012C
:1000A0000C946C010C946C010C946C010C946C011C
:1000B0000C946C010C946C010C946C010C946C010C
:1000C0000C946C010C946C010C946C010C946C01FC
:1000D0000C946C010C946C010C946C010C946C01EC
:1000E0000C946C010C9417070C9436020C942F0797
:1000F0000C94CD010C94DF060C9437070C940A077E
:100100000C940E070C9478010C941B070C946E0150
:100110000C943D070C94D4020C9402070C94250710
:100120000C94F0010C9429070C9411070C94E4062C
:100130000C9421070C9441070C9445070C94DC01A6
:100140000C9433070C9406070C94A0010C94FE0148
:100150000C94830200002200250028002B002E00B2
:100160003100340002010000050108010B0100000C
:100170002100240027002A002D0030003300010157
:100180000000040107010A010000200023002600EE
:1001900029002C002F00320000010000030106019D
:1001A00009010505050507050808080802020202FD
:1001B0000A0A080804040404010101010101010103
:1001C0000303030303030303040707070C0C0C0CCE
:1001D0000C0C0C0C020202020606060606060606B7
:1001E0000B0B0B0B0B0B0B0B010210202008081044
:1001F0002040102040800201020108040201010297
:10020000040810204080804020100804020180046F
:1002100002018040201008040201080402010102CA
:1002200004081020408001020408102040800000D3
:100230000A0B02090C0D0E08070304010000000060
:1002400000000000000000000000000000000000AE
:10025000000000000000000000001211100000006B
:10026000000000000000000000000000000000008E
:1002700000000000450711241FBECFEFD1E2DEBF12
:10028000CDBF00E00CBF12E0A0E0B2E0ECE3FFE085
:1002900000E00BBF02C007900D92A832B107D9F75A
:1002A00022E0A8E2B2E001C01D92A83DB207E1F74A
:1002B00011E0CBE3D1E000E006C021970109802FD7
:1002C000FE010E949407CA33D10780E00807A9F70E
:1002D0000E9474050C949C070C94000080912C02E1
:1002E00090912D02019690932D0280932C020895F7
:1002F00080912E0290912F02A0913002B091310294
:100300000196A11DB11D80932E0290932F02A09300
:100310003002B093310280912E0290912F02A09171
:100320003002B0913102CD97A105B10544F0109291
:100330002E0210922F021092300210923102089574
:10034000AF92BF92CF92DF92EF92FF920F931F93E3
:10035000CF93DF936C017B018B01040F151FEB0121
:100360005E01AE18BF08C017D10759F06991D601D8
:10037000ED91FC910190F081E02DC6011995892B3A
:1003800079F7C501DF91CF911F910F91FF90EF9009
:10039000DF90CF90BF90AF900895FC01538D448DB6
:1003A000252F30E0842F90E0821B930B541710F020
:1003B000CF96089501970895FC01918D828D98172D
:1003C00061F0A28DAE0FBF2FB11D5D968C91928D05
:1003D0009F5F9F73928F90E008958FEF9FEF089536
:1003E000FC01918D828D981731F0828DE80FF11DFF
:1003F000858D90E008958FEF9FEF0895FC01918D1A
:10040000228D892F90E0805C9F4F821B91098F7312
:10041000992708958BE392E00E94FE0121E0892B49
:1004200009F420E0822F0895FC01A48DA80FB92FB4
:10043000B11DA35ABF4F2C91848D90E001968F730C
:100440009927848FA689B7892C93A089B1898C912B
:10045000837080648C93938D848D981306C002887A
:10046000F389E02D80818F7D80830895EF92FF9244
:100470000F931F93CF93DF93EC0181E0888F9B8DC7
:100480008C8D98131AC0E889F989808185FF15C081
:100490009FB7F894EE89FF896083E889F9898081A4
:1004A0008370806480839FBF81E090E0DF91CF9173
:1004B0001F910F91FF90EF900895F62E0B8D10E095
:1004C0000F5F1F4F0F731127E02E8C8D8E110CC004
:1004D0000FB607FCFACFE889F989808185FFF5CF4F
:1004E000CE010E941402F1CFEB8DEC0FFD2FF11D18
:1004F000E35AFF4FF0829FB7F8940B8FEA89FB898C
:1005000080818062CFCFCF93DF93EC01888D8823E9
:10051000B9F0AA89BB89E889F9898C9185FD03C066
:10052000808186FD0DC00FB607FCF7CF8C9185FF4B
:10053000F2CF808185FFEDCFCE010E941402E9CF7A
:10054000DF91CF91089580E090E0892B29F00E94FF
:100550000A0281110E94000080E090E0892B49F09E
:1005600080E090E0892B29F00E94000081110E9418
:10057000000080E090E0892B49F080E090E0892B3A
:1005800029F00E94000081110E94000080E090E0AC
:10059000892B49F080E090E0892B29F00E9400002F
:1005A00081110C94000008950895FC010190002031
:1005B000E9F73197AF01481B590BBC018BE392E07F
:1005C0000C94A0018F929F92AF92BF920F931F93B2
:1005D000CF93DF93CDB7DEB7A1970FB6F894DEBF08
:1005E0000FBECDBF19A2423008F44AE08E010F5D64
:1005F0001F4F842E912CB12CA12CA50194010E9497
:100600007207E62FB901CA01EA30F4F4E05DD801BF
:10061000EE938D01232B242B252B79F790E080E09E
:10062000109719F0CD010E94D502A1960FB6F8944B
:10063000DEBF0FBECDBFDF91CF911F910F91BF9055
:10064000AF909F908F900895E95CE1CFCF92DF92B9
:10065000EF92FF92CF93DF936B017C016DE28BE30E
:1006600092E00E943602EC0166277727CB016C19D5
:100670007D098E099F094AE00E94E2028C0F9D1FAE
:10068000DF91CF91FF90EF90DF90CF9008951F9270
:100690000F920FB60F9211242F933F938F939F9336
:1006A000AF93BF938091370290913802A0913902A5
:1006B000B0913A023091360223E0230F2D3758F5DE
:1006C0000196A11DB11D20933602809337029093AD
:1006D0003802A0933902B0933A028091320290918D
:1006E0003302A0913402B09135020196A11DB11DD3
:1006F0008093320290933302A0933402B093350278
:10070000BF91AF919F918F913F912F910F900FBE0D
:100710000F901F90189526E8230F0296A11DB11D7A
:10072000D2CF1F920F920FB60F9211240BB60F92D9
:100730002F933F934F935F936F937F938F939F93E9
:10074000AF93BF93EF93FF938BE392E00E94140269
:10075000FF91EF91BF91AF919F918F917F916F9199
:100760005F914F913F912F910F900BBE0F900FBE55
:100770000F901F9018951F920F920FB60F92112491
:100780000BB60F922F938F939F93EF93FF93E0916C
:100790004B02F0914C028081E0915102F0915202A3
:1007A00082FD1DC09081809154028F5F8F732091D4
:1007B0005502821741F0E0915402F0E0E55CFD4FF4
:1007C000958F80935402FF91EF919F918F912F917C
:1007D0000F900BBE0F900FBE0F901F901895808149
:1007E000F2CF1F920F920FB60F9211240BB60F92F9
:1007F0002F933F934F935F936F937F938F939F9329
:10080000AF93BF93EF93FF93E0910E02F0910F022D
:100810001995FF91EF91BF91AF919F918F917F912A
:100820006F915F914F913F912F910F900BBE0F9061
:100830000FBE0F901F9018951F920F920FB60F9238
:1008400011240BB60F922F933F934F935F936F93A7
:100850007F938F939F93AF93BF93EF93FF93E09119
:100860000C02F0910D021995FF91EF91BF91AF919C
:100870009F918F917F916F915F914F913F912F91B8
:100880000F900BBE0F900FBE0F901F9018951F92E8
:100890000F920FB60F9211240BB60F922F933F9326
:1008A0004F935F936F937F938F939F93AF93BF9378
:1008B000EF93FF93E0910202F09103021995FF91EB
:1008C000EF91BF91AF919F918F917F916F915F91C8
:1008D0004F913F912F910F900BBE0F900FBE0F9035
:1008E0001F9018951F920F920FB60F9211240BB6FE
:1008F0000F922F933F934F935F936F937F938F93B9
:100900009F93AF93BF93EF93FF93E0910002F09119
:1009100001021995FF91EF91BF91AF919F918F9136
:100920007F916F915F914F913F912F910F900BBEEF
:100930000F900FBE0F901F9018951F920F920FB639
:100940000F9211240BB60F922F933F934F935F9307
:100950006F937F938F939F93AF93BF93EF93FF9387
:10096000E0910A02F0910B021995FF91EF91BF916E
:10097000AF919F918F917F916F915F914F913F9137
:100980002F910F900BBE0F900FBE0F901F901895D8
:100990001F920F920FB60F9211240BB60F922F9346
:1009A0003F934F935F936F937F938F939F93AF93F7
:1009B000BF93EF93FF93E0910802F091090219951C
:1009C000FF91EF91BF91AF919F918F917F916F9127
:1009D0005F914F913F912F910F900BBE0F900FBEE3
:1009E0000F901F9018951F920F920FB60F9211241F
:1009F0000BB60F922F933F934F935F936F937F9319
:100A00008F939F93AF93BF93EF93FF93E091060271
:100A1000F09107021995FF91EF91BF91AF919F91CE
:100A20008F917F916F915F914F913F912F910F9097
:100A30000BBE0F900FBE0F901F9018951F920F9234
:100A40000FB60F9211240BB60F922F933F934F9333
:100A50005F936F937F938F939F93AF93BF93EF9326
:100A6000FF93E0910402F09105021995FF91EF9137
:100A7000BF91AF919F918F917F916F915F914F91B6
:100A80003F912F910F900BBE0F900FBE0F901F90B4
:100A900018951F920F920FB60F9211240BB60F925A
:100AA0002F933F934F935F936F937F938F939F9376
:100AB000AF93BF93EF93FF93E0912802F091290247
:100AC0001995FF91EF91BF91AF919F918F917F9178
:100AD0006F915F914F913F912F910F900BBE0F90AF
:100AE0000FBE0F901F901895789484B5826084BDD6
:100AF00084B5816084BD85B5826085BD85B5816022
:100B000085BD80916E00816080936E00109281009F
:100B1000809181008260809381008091810081605A
:100B2000809381008091800081608093800080911B
:100B3000B10084608093B1008091B00081608093A7
:100B4000B00080919100826080939100809191002B
:100B500081608093910080919000816080939000EB
:100B60008091A10082608093A1008091A1008160AA
:100B70008093A1008091A00081608093A00080916B
:100B80002101826080932101809121018160809305
:100B900021018091200181608093200180917A0061
:100BA000846080937A0080917A00826080937A00DA
:100BB00080917A00816080937A0080917A008068C9
:100BC00080937A001092C100CBEED1E0FE01249117
:100BD00005EA11E0F80184918823C9F090E0880FBC
:100BE000991FFC01E259FE4FA591B491FC01EC5A0A
:100BF000FE4F459154913FB7F8949C91822F809578
:100C000098239C93FA019081892380833FBF8EE6CD
:100C100091E0909303028093020280916A008C60BD
:100C200080936A00ED9A80E18093810010928000A9
:100C300082E19AE7909387008093860084E1809315
:100C4000810088E791E0909329028093280281E057
:100C500080936F00E0914B02F0914C0282E0808320
:100C6000E0914702F09148021082E0914902F09130
:100C70004A028FEC808310925302E0914F02F09170
:100C8000500286E08083E0914D02F0914E02808117
:100C900080618083E0914D02F0914E0280818860F6
:100CA0008083E0914D02F0914E02808180688083C4
:100CB000E0914D02F0914E0280818F7D808391E31F
:100CC000E92E92E0F92E80912E0290912F02A091B0
:100CD0003002B0913102CC97A105B10541F4809169
:100CE0002C0290912D0290932B0280932A028091E6
:100CF0002E0290912F02A0913002B0913102892BE7
:100D00008A2B8B2B21F410922D0210922C026091D1
:100D10002C0270912D0290E080E04AE00E94E202F5
:100D200082E292E00E94D50260912A0270912B0229
:100D300090E080E04AE00E94E20282E292E00E94BB
:100D4000D50260912E0270912F0280913002909115
:100D5000310297FF30C00E94260382E292E00E9497
:100D6000D502F7018491FE012491F801949170E07D
:100D700060E0992309F438C0882331F18150823131
:100D800018F5E82FF0E08827E753F94F8F4F0C94C0
:100D900094070A070E07DF0602070607E406110795
:100DA00017071B072107250729072F073307E40625
:100DB00037073D0741074AE00E94E202CECF80910B
:100DC00080008F7780938000E92FF0E0EE0FFF1F07
:100DD000E857FE4FA591B4918C91282391E080E0D3
:100DE00009F490E0692F782F072E000C880B990BDF
:100DF0004AE00E94E20285E292E00E94D5020E944F
:100E0000A30261CF809180008F7DDCCF8091800034
:100E1000877FD8CF84B58F7784BDD6CF84B58F7DBB
:100E2000FBCF8091B0008F778093B000CDCF8091C1
:100E3000B0008F7DF9CF809190008F7780939000E4
:100E4000C3CF809190008F7DF9CF80919000877FF4
:100E5000F5CF8091A0008F778093A000B5CF8091CF
:100E6000A0008F7DF9CF8091A000877FF5CF809182
:100E700020018F7780932001A7CF809120018F7D63
:100E8000F9CF80912001877FF5CFEBE3F2E0138269
:100E9000128288EE93E0A0E0B0E084839583A6837D
:100EA000B78384E192E09183808385EC90E095871D
:100EB000848784EC90E09787868780EC90E0918B24
:100EC000808B81EC90E0938B828B82EC90E0958B11
:100ED000848B86EC90E0978B868B118E128E138E0E
:100EE000148E0895A1E21A2EAA1BBB1BFD010DC092
:100EF000AA1FBB1FEE1FFF1FA217B307E407F507CA
:100F000020F0A21BB30BE40BF50B661F771F881FA5
:100F1000991F1A9469F760957095809590959B013B
:100F2000AC01BD01CF010895EE0FFF1F881F8BBFDD
:0C0F30000790F691E02D1994F894FFCF83
:100F3C00D402D402D402D402D402D402D402D402F5
:100F4C00000000003602A001CD018302FE01DC018D
:080F5C00F0012020000D0A0045
:00000001FF
