:100000000C9453010C9484010C9484010C9484018D
:100010000C9484010C9484010C9484010C9484014C
:100020000C9484010C9484010C9484010C9484013C
:100030000C9484010C9484010C9484010C9484012C
:100040000C9484010C9484010C9484010C9484011C
:100050000C9408090C9484010C9484010C94BE083F
:100060000C9484010C9484010C9484010C948401FC
:100070000C9484010C9484010C9484010C948401EC
:100080000C9484010C9484010C9484010C948401DC
:100090000C9484010C9484010C9484010C948401CC
:1000A0000C9484010C9484010C9484010C948401BC
:1000B0000C9484010C9484010C9484010C948401AC
:1000C0000C9484010C9484010C9484010C9484019C
:1000D0000C9484010C9484010C9484010C9484018C
:1000E0000C9484010C9486010C946A030C94F60120
:1000F0000C940C020C9474030C94DA020C94E70236
:100100000C9408020C94D7010C94EF030C94EC03AC
:100110000C94F1020C94E3010C94FA010C940D037D
:100120000C945C0A0C9460030C9404020C94E2029C
:100130000C9429030C9433030C9456030C94EC0197
:100140000C9412020C9405030C94DF010C9416021B
:100150000C941F030C94FB020C94DB010C94110211
:100160000C944C030C94D1010C9445060C9415038B
:100170000C94FE010C94EB030C94F0010C944203DC
:100180000C94E60100002100240027002A002D0025
:100190003000330001010000040107010A010000E2
:1001A0002200250028002B002E003100340002011F
:1001B0000000050108010B010000200023002600BB
:1001C00029002C002F00320000010000030106016D
:1001D00009010505050507050808080802020202CD
:1001E0000A0A0808040404040101010101010101D3
:1001F0000303030303030303040707070C0C0C0C9E
:100200000C0C0C0C02020202060606060606060686
:100210000B0B0B0B0B0B0B0B010210202008081013
:100220002040102040800201020108040201010266
:10023000040810204080804020100804020180043F
:10024000020180402010080402010804020101029A
:1002500004081020408001020408102040800000A3
:100260000A0B02090C0D0E08070304010000000030
:10027000000000000000000000000000000000007E
:10028000000000000000000000001211100000003B
:10029000000000000000000000000000000000005E
:1002A000000000005C0A11241FBECFEFD1E2DEBFC8
:1002B000CDBF00E00CBF12E0A0E0B2E0E2EDF9E15A
:1002C00000E00BBF02C007900D92A236B107D9F72C
:1002D00022E0A2E6B2E001C01D92A03AB207E1F727
:1002E00011E0C3E5D1E000E006C021970109802FAD
:1002F000FE010E94DF0CC235D10780E00807A9F794
:100300000E9433090C94E70C0C940000AF92BF924A
:10031000CF92DF92EF92FF920F931F93CF93DF93D1
:100320006C017B018B01040F151FEB015E01AE1800
:10033000BF08C017D10759F06991D601ED91FC9122
:100340000190F081E02DC6011995892B79F7C5013F
:10035000DF91CF911F910F91FF90EF90DF90CF90A1
:10036000BF90AF9008958150823108F05AC0E82FB5
:10037000F0E08827E154FE4F8F4F0C94DF0CDF0133
:10038000E301D101D701DB011102E601EC01F0012B
:10039000F601FA01FE010402080211020C02120227
:1003A0001602809180008F7780938000089580915D
:1003B00080008F7DF9CF80918000877FF5CF84B555
:1003C0008F7784BD089584B58F7DFBCF8091B00079
:1003D0008F778093B00008958091B0008F7DF9CF22
:1003E000809190008F778093900008958091900085
:1003F0008F7DF9CF80919000877FF5CF8091A0000D
:100400008F778093A00008958091A0008F7DF9CF11
:100410008091A000877FF5CF809120018F77809316
:1004200020010895809120018F7DF9CF80912001D6
:10043000877FF5CFCF93DF93282F30E0F901E25A81
:10044000FD4F8491F901E85EFD4FD491F901EE5220
:10045000FE4FC491CC23A1F081110E94B301EC2F77
:10046000F0E0EE0FFF1FE854FE4FA591B491EC9120
:10047000ED2381E090E009F480E0DF91CF910895D1
:1004800080E090E0FACF1F93CF93DF93282F30E0E6
:10049000F901E25AFD4F8491F901E85EFD4FD491D4
:1004A000F901EE52FE4FC491CC23A9F0162F811111
:1004B0000E94B301EC2FF0E0EE0FFF1FE256FE4F5B
:1004C000A591B4918FB7F894EC91111108C0D09513
:1004D000DE23DC938FBFDF91CF911F910895DE2B38
:1004E000F8CFCF93DF9390E0FC01E85EFD4F2491BD
:1004F0008E529E4FFC0184918823D1F090E0880FAA
:10050000991FFC01EC57FE4FA591B491FC01E256F6
:10051000FE4FC591D49161110EC09FB7F8948C9194
:10052000E22FE0958E238C932881E223E8839FBFFE
:10053000DF91CF9108958FB7F894EC91E22BEC9373
:100540008FBFF6CF1F93CF93DF93182FEB0161E09E
:100550000E947102209739F460E0812FDF91CF91E2
:100560001F910C944302CF3FD10511F461E0F5CF08
:10057000E12FF0E0E25AFD4FE491E150E23108F062
:10058000B3C0F0E08827E853FD4F8F4F0C94DF0C89
:10059000DA02E202E702F102FB02740305030D0333
:1005A00015031F032903330342034C03740356034B
:1005B00060036A0384B5806884BDC7BDDF91CF91B5
:1005C0001F91089584B5806284BDC8BDF7CF809126
:1005D0008000806880938000D0938900C093880059
:1005E000EDCF80918000806280938000D0938B005B
:1005F000C0938A00E3CF8091800088608093800060
:10060000D0938D00C0938C00D9CF8091B0008068CA
:100610008093B000C093B300D1CF8091B0008062CE
:100620008093B000C093B400C9CF809190008068DF
:1006300080939000D0939900C0939800BFCF809191
:100640009000806280939000D0939B00C0939A00AA
:10065000B5CF80919000886080939000D0939D00EA
:10066000C0939C00ABCF8091A00080688093A000D5
:100670008091A0008F7B8093A000D093A900C093AD
:10068000A8009CCF8091A00080628093A000D093AE
:10069000AB00C093AA0092CF8091A00088608093A5
:1006A000A000D093AD00C093AC0088CF8091200112
:1006B000806880932001D0932901C09328017ECFC8
:1006C00080912001806280932001D0932B01C09300
:1006D0002A0174CF80912001886080932001D093FB
:1006E0002D01C0932C016ACFC038D1050CF03ECF4C
:1006F00033CF865320917B00982F987F277F922BB2
:1007000090937B008770806480937C0080917A0056
:10071000806480937A0080917A0086FDFCCF80917E
:1007200078009091790008953FB7F8948091820203
:1007300090918302A0918402B091850226B5A89B76
:1007400005C02F3F19F00196A11DB11D3FBFBA2F63
:10075000A92F982F8827BC01CD01620F711D811D23
:10076000911D42E0660F771F881F991F4A95D1F7A8
:1007700008958F929F92AF92BF92CF92DF92EF92A5
:10078000FF924B015C010E9494036B017C010E946B
:1007900094036C197D098E099F09683E7340810599
:1007A0009105A8F321E0821A9108A108B10888EE0A
:1007B000C80E83E0D81EE11CF11C81149104A10431
:1007C000B10429F7FF90EF90DF90CF90BF90AF90EA
:1007D0009F908F900895089590E080E00895809113
:1007E0007002882349F18091790290917A02A09158
:1007F0007B02B0917C020196A11DB11D809379020C
:1008000090937A02A0937B02B0937C02809179024C
:1008100090917A02A0917B02B0917C02CD97A105C4
:10082000B10554F01092790210927A0210927B0274
:1008300010927C021092700280916F02882349F11D
:100840008091750290917602A0917702B091780222
:100850000196A11DB11D8093750290937602A0931D
:100860007702B09378028091750290917602A09100
:100870007702B0917802CD97A105B10554F010929E
:1008800075021092760210927702109278021092FE
:100890006F0280916E02882349F1809171029091DC
:1008A0007202A0917302B09174020196A11DB11D54
:1008B0008093710290937202A0937302B0937402BA
:1008C0008091710290917202A0917302B0917402B2
:1008D000CD97A105B10554F01092710210927202E9
:1008E000109273021092740210926E020895FC012D
:1008F00001900020E9F73197AF01481B590BBC016B
:1009000088E892E00C9486018F929F92AF92BF92FA
:100910000F931F93CF93DF93CDB7DEB7A1970FB699
:10092000F894DEBF0FBECDBF19A2423008F44AE0F2
:100930008E010F5D1F4F842E912CB12CA12CA5018F
:1009400094010E94BD0CE62FB901CA01EA30F4F40B
:10095000E05DD801EE938D01232B242B252B79F715
:1009600090E080E0109719F0CD010E947704A196E5
:100970000FB6F894DEBF0FBECDBFDF91CF911F91B0
:100980000F91BF90AF909F908F900895E95CE1CF59
:100990000C947704CF93DF93EC0160E08E810E948A
:1009A000430261E08E810E94430260E08E810E94DA
:1009B00043028BE891E00197F1F7DF91CF91089521
:1009C000CF92DF92EF92FF920F931F93CF93DF931B
:1009D0006C017C0187E0E80EF11CD0E0C0E0062F3E
:1009E00010E0B8010C2E02C0759567950A94E2F7E5
:1009F0006170F70181917F010E9443022196C4300A
:100A0000D10579F7C601DF91CF911F910F91FF902A
:100A1000EF90DF90CF900C94CA04CF92DF92EF92C8
:100A2000FF920F931F93CF93DF93EC01F62E642F69
:100A30008C810E9443028D818F3F19F060E00E94FB
:100A400043020F2D10E08F8584FF25C06E0187E0E3
:100A5000C80ED11CF12CE12CB8010E2C02C07595EA
:100A600067950A94E2F76170F60181916F010E9427
:100A70004302FFEFEF1AFF0A88E0E816F10461F77E
:100A8000CE01DF91CF911F910F91FF90EF90DF90FA
:100A9000CF900C94CA04B80184E0759567958A9547
:100AA000E1F7CE010E94E0046F2DCE01DF91CF91DE
:100AB0001F910F91FF90EF90DF90CF900C94E00486
:100AC00040E0682F88E892E00C940D0581E00E94D8
:100AD00060058BE39FE10197F1F70895809179021A
:100AE00090917A02A0917B02B0917C02CC97A105F3
:100AF000B105C1F08091750290917602A0917702C4
:100B0000B0917802CC97A105B10561F08091710296
:100B100090917202A0917302B0917402CC97A105DA
:100B2000B10511F40C9466050895CF93DF938230DC
:100B300029F49091970298609093970280939B027A
:100B400010929C0280E480939D0280E180939E023B
:100B500080E580939F0261E080918C020E94710287
:100B600080918D028F3F19F061E00E94710261E077
:100B700080918E020E947102C8E8D2E09E0128583E
:100B800032408091970284FD0BC084E090E0219672
:100B90002817390744F461E08E810E947102EECF7C
:100BA00088E090E0F4CF8BE39DE00197F1F760E0FF
:100BB00080918C020E94430260E080918E020E942C
:100BC000430280918D028F3F19F060E00E94430242
:100BD0008091970284FD34C063E088E892E00E942F
:100BE000E004CBE4D6E4CE010197F1F763E088E8B6
:100BF00092E00E94E0042197F1F763E088E892E038
:100C00000E94E00483E592E00197F1F762E088E852
:100C100092E00E94E0048091970280620E94600549
:100C200084E0809398028CE00E9460050E94660533
:100C300082E08093990286E0DF91CF910C94600569
:100C400080620E9460058BE496E40197F1F7809141
:100C5000970280620E94600583E592E00197F1F7B8
:100C60008091970280620E946005D5CF90919B028F
:100C7000691710F06FEF690FE62FF0E0E857FD4FAE
:100C80009489890F80680C94600541E00E940D05ED
:100C900081E090E00895CF92DF92EF92FF9297FF6C
:100CA00018C06B017C0141E06DE288E892E00E948F
:100CB0000D0566277727CB016C197D098E099F09E1
:100CC0004AE00E9484040196FF90EF90DF90CF905D
:100CD00008954AE0FF90EF90DF90CF900C94840449
:100CE0004F925F926F927F928F929F92AF92BF923C
:100CF000CF92DF92EF92FF920F931F93CF936B01EE
:100D00007C01742EAC019B010E94B80C882399F0E1
:100D10008CE092E0CF911F910F91FF90EF90DF90C8
:100D2000CF90BF90AF909F908F907F906F905F908B
:100D30004F900C94770446015701E894B7F82FEFD1
:100D40003FEF4FE75FE7C501B4010E94B80C811186
:100D50000DC02FEF3FEF4FE75FE7C501B4010E94E1
:100D6000E70A18161CF480E192E0D4CF2FEF3FEF92
:100D70004FE75FE4C701B6010E94460C18161CF449
:100D800084E192E0C7CF2FEF3FEF4FE75FECC70161
:100D9000B6010E94E70A87FDF3CF20E030E0A90109
:100DA000C701B6010E94E70A10E000E087FF0CC00F
:100DB00041E06DE288E892E00E940D05F7FAF094B8
:100DC000F7F8F09401E010E0C0E060E070E080E04F
:100DD0009FE37C1641F020E030E040E251E40E94C5
:100DE000EC0ACF5FF6CFA70196010E947B0A4B0168
:100DF0005C010E94650B2B013C014AE00E948404C7
:100E0000080F191FCC23C9F1C301B2010E94940B32
:100E10009B01AC01C501B4010E947A0A4B015C013F
:100E200041E06EE288E892E00E940D050F5F1F4FDF
:100E3000C15018F120E030E040E251E4C501B401B6
:100E40000E944B0C2B013C010E94650B4B01B12C05
:100E5000A12C4AE0C501B4010E948404080F191FA7
:100E6000C501B4010E94940B9B01AC01C301B20106
:100E70000E947A0A4B015C01DBCFC801CF911F9120
:100E80000F91FF90EF90DF90CF90BF90AF909F9029
:100E90008F907F906F905F904F900895CF92DF92E8
:100EA000EF92FF928BE20E941A02019731F4809137
:100EB000700291E089278093700285E20E941A02F5
:100EC000019731F480916F0291E0892780936F023E
:100ED00081E20E941A02019731F480916E0291E042
:100EE000892780936E0280916F02882309F410C1D4
:100EF00061E08BE10E94430260E082E00E944302D5
:100F000061E084E00E94430280916E02882309F42C
:100F100009C161E08DE00E94430260E08CE00E9424
:100F200043028AE30E947903BC01990F880B990B55
:100F30000E94960B20E030E048EC52E40E944B0CFB
:100F400020E030EC4FE754E40E94EC0A6093660224
:100F500070936702809368029093690220E030E00A
:100F60004FE753E40E944B0C20E030E048EC52E4A1
:100F70000E94EC0A609362027093630280936402A1
:100F8000909365020E945E0B6B0183E00E94A202B7
:100F9000B6018AE00E94A20280917002882309F4BF
:100FA000DAC08EE30E947903BC01990F880B990B7C
:100FB0000E94960B20E030E048EC52E40E944B0C7B
:100FC00020E030EC4FE754E40E94EC0A60936A02A0
:100FD00070936B0280936C0290936D0220E030E07E
:100FE0004FE753E40E944B0C20E030E048EC52E421
:100FF0000E94EC0A0E945E0B85E00E94A20260E063
:1010000080E00E94360688E192E00E94C80460E019
:1010100084E00E94360660916A0270916B028091B2
:101020006C0290916D0242E00E94700661E080E0E7
:101030000E9436066091790270917A0280917B025B
:1010400090917C020E944B0661E082E00E9436068D
:101050008DE192E00E94C80460E08BE00E943606B9
:1010600081E292E00E94C80480916F0260E08823D0
:1010700009F47EC08FE00E94360686E292E00E946C
:10108000C80461E08BE00E943606609175027091A1
:10109000760280917702909178020E944B0661E07F
:1010A0008DE00E9436068DE192E00E94C80460E067
:1010B00082E10E9436068CE292E00E94C80460E061
:1010C00086E10E9436066091660270916702809107
:1010D00068029091690242E00E94700661E082E13C
:1010E0000E943606609171027091720280917302C3
:1010F000909174020E944B0661E084E10E943606E2
:101100008DE192E0FF90EF90DF90CF900C94C804B7
:1011100060E08BE10E94430260E082E00E944302B3
:1011200060E0EFCE60E083E00E94430260E08DE08B
:101130000E94430260E08CE00E944302109266022B
:1011400010926702109268021092690260E08AE0D1
:101150000E94430221CF10926A0210926B021092F9
:101160006C0210926D0260E085E00E94430247CF5E
:101170008FE00E94360689E292E081CF1F920F92A3
:101180000FB60F9211242F933F938F939F93AF939A
:10119000BF9380917E0290917F02A0918002B091D6
:1011A000810230917D0223E0230F2D3758F50196FF
:1011B000A11DB11D20937D0280937E0290937F023A
:1011C000A0938002B0938102809182029091830269
:1011D000A0918402B09185020196A11DB11D80935A
:1011E000820290938302A0938402B0938502BF9100
:1011F000AF919F918F913F912F910F900FBE0F90C4
:101200001F90189526E8230F0296A11DB11DD2CF7D
:101210001F920F920FB60F9211240BB60F922F93BD
:101220003F934F935F936F937F938F939F93AF936E
:10123000BF93EF93FF93E0918602F0918702199597
:10124000FF91EF91BF91AF919F918F917F916F919E
:101250005F914F913F912F910F900BBE0F900FBE5A
:101260000F901F901895789484B5826084BD84B5E2
:10127000816084BD85B5826085BD85B5816085BD91
:1012800080916E00816080936E0010928100809149
:1012900081008260809381008091810081608093D1
:1012A0008100809180008160809380008091B100F6
:1012B00084608093B1008091B00081608093B00021
:1012C0008091910082608093910080919100816073
:1012D0008093910080919000816080939000809134
:1012E000A10082608093A1008091A1008160809321
:1012F000A1008091A00081608093A00080912101D5
:10130000826080932101809121018160809321017D
:101310008091200181608093200180917A00846017
:1013200080937A0080917A00826080937A00809125
:101330007A00816080937A0080917A00806880933F
:101340007A001092C10060E08BE20E94710260E0BE
:1013500085E20E94710260E081E20E94710261E018
:1013600085E00E94710261E08BE10E94710261E000
:1013700083E00E94710261E082E00E94710261E0FC
:1013800084E00E94710261E08DE00E94710261E0E0
:101390008CE00E94710260E08AE30E94710260E0CA
:1013A0008EE30E94710280E18093810010928000A0
:1013B00082E19AE7909387008093860084E180938E
:1013C00081008FEE93E0909387028093860281E004
:1013D00080936F0082E00E9495050E94660581E37C
:1013E00092E00E94C80461E080E00E9436068DE32E
:1013F00092E00E94C80460ED77E080E090E00E94F7
:10140000B9030E94660560E080E00E94360687E42A
:1014100092E00E94C80461E080E00E94360683E505
:1014200092E00E94C80460ED77E080E090E00E94C6
:10143000B9030E94660500E010E0CDE0D0E00E9414
:101440004E070E946E0588E10E94600564E670E028
:1014500080E090E00E94B903219789F7CDE1D0E0C8
:101460000E944E070E946E058CE10E94600564E6B2
:1014700070E080E090E00E94B903219789F7C0E115
:10148000D0E00E944E070E946E0588E10E94600530
:1014900064E670E080E090E00E94B903219789F74C
:1014A00066EB73E080E090E00E94B903011511053E
:1014B00021F20E940000C1CFE8E8F2E0138212821C
:1014C00084E092E09183808387E184838FEF85833A
:1014D00086E0868387E0878388E0808789E081874C
:1014E0008BE082871386148615861686178681E020
:1014F0000C9495055058BB27AA270E94920A0C9479
:101500000C0C0E94FE0B38F00E94050C20F039F400
:101510009F3F19F426F40C94FB0B0EF4E095E7FBC7
:101520000C94F50BE92F0E941D0C58F3BA176207B3
:1015300073078407950720F079F4A6F50C943F0C07
:101540000EF4E0950B2EBA2FA02D0B01B9019001DE
:101550000C01CA01A0011124FF27591B99F0593F22
:1015600050F4503E68F11A16F040A22F232F342F6A
:101570004427585FF3CF469537952795A795F040B8
:101580005395C9F77EF41F16BA0B620B730B840BCD
:10159000BAF09150A1F0FF0FBB1F661F771F881F85
:1015A000C2F70EC0BA0F621F731F841F48F48795DD
:1015B00077956795B795F7959E3F08F0B0CF9395CF
:1015C000880F08F09927EE0F9795879508950E9448
:1015D000D10B08F481E008950E94000B0C940C0CD0
:1015E0000E94050C58F00E94FE0B40F029F45F3F6A
:1015F00029F00C94F50B51110C94400C0C94FB0B3E
:101600000E941D0C68F39923B1F3552391F3951BA8
:10161000550BBB27AA2762177307840738F09F5F13
:101620005F4F220F331F441FAA1FA9F335D00E2E80
:101630003AF0E0E832D091505040E695001CCAF7ED
:101640002BD0FE2F29D0660F771F881FBB1F2617B0
:1016500037074807AB07B0E809F0BB0B802DBF0187
:10166000FF2793585F4F3AF09E3F510578F00C9456
:10167000F50B0C94400C5F3FE4F3983ED4F3869551
:1016800077956795B795F7959F5FC9F7880F911D77
:101690009695879597F90895E1E0660F771F881F63
:1016A000BB1F621773078407BA0720F0621B730B16
:1016B000840BBA0BEE1F88F7E09508950E94650B26
:1016C0006894B1110C94400C08950E94250C88F088
:1016D0009F5798F0B92F9927B751B0F0E1F0660FF6
:1016E000771F881F991F1AF0BA95C9F714C0B13037
:1016F00091F00E943F0CB1E008950C943F0C672FCD
:10170000782F8827B85F39F0B93FCCF38695779565
:101710006795B395D9F73EF490958095709561954E
:101720007F4F8F4F9F4F0895E89409C097FB3EF479
:1017300090958095709561957F4F8F4F9F4F99231E
:10174000A9F0F92F96E9BB279395F695879577959C
:101750006795B795F111F8CFFAF4BB0F11F460FF5C
:101760001BC06F5F7F4F8F4F9F4F16C0882311F0B4
:1017700096E911C0772321F09EE8872F762F05C0C8
:10178000662371F096E8862F70E060E02AF09A9563
:10179000660F771F881FDAF7880F9695879597F958
:1017A0000895990F0008550FAA0BE0E8FEEF1616F2
:1017B0001706E807F907C0F012161306E407F50745
:1017C00098F0621B730B840B950B39F40A2661F0B9
:1017D000232B242B252B21F408950A2609F4A1405C
:1017E000A6958FEF811D811D089597F99F6780E869
:1017F00070E060E008959FEF80EC089500240A9463
:101800001616170618060906089500240A941216DB
:101810001306140605060895092E0394000C11F40E
:10182000882352F0BB0F40F4BF2B11F460FF04C0BB
:101830006F5F7F4F8F4F9F4F089557FD9058440F14
:10184000551F59F05F3F71F04795880F97FB991F1F
:1018500061F09F3F79F087950895121613061406DC
:10186000551FF2CF4695F1DF08C016161706180669
:10187000991FF1CF86957105610508940895E89444
:10188000BB2766277727CB0197F908950E94D10BD4
:1018900008F48FEF08950E945E0C0C940C0C0E94CB
:1018A000FE0B38F00E94050C20F0952311F00C94EB
:1018B000F50B0C94FB0B11240C94400C0E941D0C96
:1018C00070F3959FC1F3950F50E0551F629FF00193
:1018D000729FBB27F00DB11D639FAA27F00DB11DAC
:1018E000AA1F649F6627B00DA11D661F829F222735
:1018F000B00DA11D621F739FB00DA11D621F839FBC
:10190000A00D611D221F749F3327A00D611D231F91
:10191000849F600D211D822F762F6A2F11249F57DF
:1019200050409AF0F1F088234AF0EE0FFF1FBB1FE2
:10193000661F771F881F91505040A9F79E3F5105A1
:1019400080F00C94F50B0C94400C5F3FE4F3983E50
:10195000D4F3869577956795B795F795E7959F5F4B
:10196000C1F7FE2B880F911D9695879597F90895DD
:101970000E94D10B880B990B0895A1E21A2EAA1B85
:10198000BB1BFD010DC0AA1FBB1FEE1FFF1FA2172F
:10199000B307E407F50720F0A21BB30BE40BF50B2C
:1019A000661F771F881F991F1A9469F760957095B5
:1019B000809590959B01AC01BD01CF010895EE0F7C
:1019C000FF1F881F8BBF0790F691E02D1994F894A4
:0219D000FFCF47
:1019D2000000000045068601EC03EB036E616E0019
:1019E200696E66006F7666005265733A00736567CA
:1019F200004578743A005369004E6F00466C753AA0
:101A0200004269656E76656E69646F73005061723B
:101A12006369616C20340042726179616E204C65A9
:101A22006F6E005061747269636961205669646106
:021A32006C0046
:00000001FF
