:100000000C944A010C9493070C9468070C943D07D8
:100010000C9412070C94E7060C94BC060C94910601
:100020000C9466060C947B010C947B010C947B0170
:100030000C947B010C947B010C947B010C947B0150
:100040000C947B010C947B010C947B010C947B0140
:100050000C94E2080C947B010C947B010C941C061C
:100060000C947B010C947B010C947B010C947B0120
:100070000C947B010C947B010C947B010C947B0110
:100080000C947B010C947B010C947B010C947B0100
:100090000C947B010C947B010C947B010C94BE07A7
:1000A0000C947B010C947B010C947B010C947B01E0
:1000B0000C947B010C947B010C947B010C947B01D0
:1000C0000C947B010C947B010C947B010C947B01C0
:1000D0000C947B010C947B010C947B010C947B01B0
:1000E0000C947B010C940D090C9494020C94B803AD
:1000F0000C94C9010C94D0010C9490020C94A601AC
:100100000C9478020C9462030C949A020C946B0287
:100110000C9486020C94AD010C94E8030C948202BA
:100120000C94E9010C945F020C948B030C94630211
:100130000C9471030C94EA010C94C2010C94DA0142
:100140000C9467020C948C020C949A050C94840312
:100150000C949E020C94EB010C9448020C94E7035F
:100160000C944D020C9474020C9498010C94DE05CE
:100170000C94B4010C947E020C9461030C94BB01AA
:100180000C949F010C94FA020C946E020000210062
:10019000240027002A002D00300033000101000058
:1001A000040107010A0100002200250028002B009D
:1001B0002E003100340002010000050108010B018E
:1001C00005050505070508080808020202020A0AD3
:1001D00008080404040401010101010101010303F1
:1001E000030303030303040707070C0C0C0C0C0C9C
:1001F0000C0C0202020206060606060606060B0B99
:100200000B0B0B0B0B0B01021020200808102040D9
:1002100010204080020102010804020101020408CA
:100220001020408080402010080402018004020158
:1002300080402010080402010804020101020408A1
:1002400010204080010204081020408000000A0BAA
:1002500002090C0D0E080703040100000000000055
:10026000000000000000000000000000000000008E
:10027000000000000000000012111000000000004B
:10028000000000000000000000000000000000006E
:1002900000000D0911241FBECFEFD1E2DEBFCDBF9C
:1002A00000E00CBF12E0A0E0B2E0E2EAF7E100E01B
:1002B0000BBF02C007900D92AC34B107D9F723E011
:1002C000ACE4B2E001C01D92AD33B207E1F711E03A
:1002D000CAE4D1E000E006C021970109802FFE01A9
:1002E0000E94C70BC934D10780E00807A9F70E9414
:1002F0003B090C94CF0B0C940000E82FF0E0DF01D9
:10030000AA0FBB1FAC5FBD4F11967C936E938830D4
:1003100008F045C08827E057FE4F8F4F0C94C70B5D
:10032000B401BB0198019F01A601AD01C201C90141
:1003300080916900836080936900E89A08958091B4
:1003400069008C6080936900E99A08958091690042
:10035000806380936900EA9A089580916900806CB7
:1003600080936900EB9A089580916A00836080937E
:100370006A00EC9A089580916A008C6080936A000C
:10038000ED9A089580916A00806380936A00EE9AE6
:10039000089580916A00806C80936A00EF9A0895B6
:1003A000809113039091140301969093140380930A
:1003B00013030895209102023091030281E090E03E
:1003C000232B11F090E080E09093030280930202CF
:1003D000089508950895AF92BF92CF92DF92EF9261
:1003E000FF920F931F93CF93DF936C017B018B01DF
:1003F000040F151FEB015E01AE18BF08C017D1072F
:1004000059F06991D601ED91FC910190F081E02DB8
:10041000C6011995892B79F7C501DF91CF911F91FD
:100420000F91FF90EF90DF90CF90BF90AF90089525
:10043000282F30E0F901E45BFD4F9491F901EA5F68
:10044000FD4F449120543E4FF9012491222309F499
:1004500035C0992311F191509231F8F4E92FF0E071
:100460008827EA5CFD4F8F4F0C94C70B67026B0225
:1004700048025F0263024D026E02740278027E023D
:10048000820286028C0290024D0294029A029E021F
:10049000809180008F7780938000E22FF0E0EE0F54
:1004A000FF1FEA55FE4FA591B4918FB7F894EC91D8
:1004B000611148C040954E234C938FBF08958091A1
:1004C00080008F7DE8CF80918000877FE4CF84B566
:1004D0008F7784BDE2CF84B58F7DFBCF8091B00054
:1004E0008F778093B000D9CF8091B0008F7DF9CF06
:1004F000809190008F7780939000CFCF8091900073
:100500008F7DF9CF80919000877FF5CF8091A000FB
:100510008F778093A000C1CF8091A0008F7DF9CF0D
:100520008091A000877FF5CF809120018F77809305
:100530002001B3CF809120018F7DF9CF80912001E0
:10054000877FF5CF4E2BB8CFCF93DF9390E0FC01A0
:10055000EA5FFD4F249180549E4FFC0184918823D3
:10056000D1F090E0880F991FFC01E457FE4FA59150
:10057000B491FC01EA55FE4FC591D49161110EC0B2
:100580009FB7F8948C91E22FE0958E238C9328816D
:10059000E223E8839FBFDF91CF9108958FB7F8944E
:1005A000EC91E22BEC938FBFF6CF3FB7F89480919C
:1005B000B5029091B602A091B702B091B80226B5EB
:1005C000A89B05C02F3F19F00196A11DB11D3FBF8B
:1005D000BA2FA92F982F8827BC01CD01620F711D5A
:1005E000811D911D42E0660F771F881F991F4A9554
:1005F000D1F70895089520918D02260F3327331FD8
:1006000021323105ECF42091E702FC0190E080E01A
:10061000243069F082E00895A0918D022191AC010F
:1006200043595D4FA40FB52FB11D2C93019686172A
:1006300098F380918D02680F60938D0280E0089599
:1006400081E008951092E70281E08093E602109223
:10065000C10261E084E10E94180261E085E10E942C
:100660001802E9EBF0E080818E7F808380818D7FAE
:10067000808388E48093B80085E48093BC0008956B
:10068000CF93DF9391E090936C028823B9F0C091EF
:10069000B800D091BA008091BC008A7B8093BC00E6
:1006A00060E084E10E94180260E085E10E94180287
:1006B0000E942203D093BA00C093B800DF91CF917B
:1006C00008950895E091BE028091BD02E81730F4CC
:1006D000F0E0E45BFD4F808190E008958FEF9FEFA5
:1006E00008959091BE028091BD022FEF3FEF9817C1
:1006F00048F4E92FF0E0E45BFD4F208130E09F5F9C
:100700009093BE02C90108958091BD029091BE02EE
:10071000891B990B0895CF92DF92EF92FF920F936E
:100720001F93CF93DF937C01CB018A012091ED02CF
:10073000222389F0EB016B01C40ED51ECC15DD051B
:1007400069F06991D701ED91FC910190F081E02D64
:10075000C7011995F3CF642F0E94FB02C801DF91F6
:10076000CF911F910F91FF90EF90DF90CF90089560
:10077000CF93DF931F92CDB7DEB769832091ED024F
:100780002223F9F020911003203258F021E030E0CC
:10079000FC013383228390E080E00F90DF91CF91C2
:1007A00008958091EE02E82FF0E0E151FD4F99812C
:1007B00090838F5F8093EE028093100381E090E03E
:1007C000ECCF61E0CE0101960E94FB02F7CF0895C5
:1007D00090E080E008958F929F92AF92BF920F9326
:1007E0001F93CF93DF93CDB7DEB7A1970FB6F894E1
:1007F000DEBF0FBECDBF19A2423008F44AE08E0121
:100800000F5D1F4F842E912CB12CA12CA5019401BA
:100810000E94A50BE62FB901CA01EA3044F5E05D5C
:10082000D801EE938D01232B242B252B79F790E013
:1008300080E0109769F0FD0101900020E9F7319701
:10084000AF014A1B5B0BBD0185E293E00E94EB0107
:10085000A1960FB6F894DEBF0FBECDBFDF91CF914A
:100860001F910F91BF90AF909F908F900895E95C7A
:10087000D7CFFC0101900020E9F73197AF01481B69
:10088000590BBC0185E293E00C94EB01CF93DF930D
:10089000EC0160E08E810E94180261E08E810E946E
:1008A000180260E08E810E9418028BE891E00197A7
:1008B000F1F7DF91CF910895CF92DF92EF92FF92FF
:1008C0000F931F93CF93DF936C017C0187E0E80EB9
:1008D000F11CD0E0C0E0062F10E0B8010C2E02C0E1
:1008E000759567950A94E2F76170F70181917F0130
:1008F0000E9418022196C430D10579F7C601DF9114
:10090000CF911F910F91FF90EF90DF90CF900C94BB
:100910004604CF92DF92EF92FF920F931F93CF93F3
:10092000DF93EC01F62E642F8C810E9418028D81DA
:100930008F3F19F060E00E9418020F2D10E08F85A4
:1009400084FF25C06E0187E0C80ED11CF12CE12C7C
:10095000B8010E2C02C0759567950A94E2F7617094
:10096000F60181916F010E941802FFEFEF1AFF0A52
:1009700088E0E816F10461F7CE01DF91CF911F9175
:100980000F91FF90EF90DF90CF900C944604B80148
:1009900084E0759567958A95E1F7CE010E945C0425
:1009A0006F2DCE01DF91CF911F910F91FF90EF90AE
:1009B000DF90CF900C945C0440E0682F85E293E0D8
:1009C0000C94890481E00E94DC048BE39FE1019791
:1009D000F1F70895CF93DF93823029F49091340397
:1009E000986090933403809338031092390380E425
:1009F00080933A0380E180933B0380E580933C033E
:100A000061E0809129030E94A40280912A038F3F14
:100A100019F061E00E94A40261E080912B030E9422
:100A2000A402C5E2D3E09E012552334080913403F5
:100A300084FD0BC084E090E021962817390744F428
:100A400061E08E810E94A402EECF88E090E0F4CFB6
:100A50008BE39DE00197F1F760E0809129030E940C
:100A6000180260E080912B030E94180280912A03F3
:100A70008F3F19F060E00E9418028091340384FDDA
:100A800034C063E085E293E00E945C04CBE4D6E4EA
:100A9000CE010197F1F763E085E293E00E945C04E8
:100AA0002197F1F763E085E293E00E945C0483E51F
:100AB00092E00197F1F762E085E293E00E945C0426
:100AC0008091340380620E94DC0484E080933503CB
:100AD0008CE00E94DC040E94E20482E080933603F2
:100AE00086E0DF91CF910C94DC0480620E94DC04EC
:100AF0008BE496E40197F1F78091340380620E94C1
:100B0000DC0483E592E00197F1F780913403806281
:100B10000E94DC04D5CF90913803691710F06FEF75
:100B2000690FE62FF0E0EB5DFC4F9489890F806838
:100B30000C94DC048091150390911603A091170387
:100B4000B09118030196A11DB11D809315039093D8
:100B50001603A0931703B093180380911503909187
:100B60001603A0911703B0911803CC97A105B10506
:100B700041F4809113039091140390931203809396
:100B800011038091150390911603A0911703B09162
:100B90001803CE97A105B10584F0109215031092A9
:100BA0001603109217031092180361E08BE00E9465
:100BB0008B0582E392E00C943904089541E00E9491
:100BC000890481E090E0089585ED8093BC008091D8
:100BD000E9029091EA02A091EB02B091EC02079633
:100BE000A11DB11D23E0B695A795979587952A95E8
:100BF000D1F72091BC0024FD03C01092E7020895B4
:100C00004091E9025091EA026091EB027091EC028E
:100C1000452B462B472B69F30097A105B10541F001
:100C20002AE22A95F1F700C00197A109B109E1CFA5
:100C30008091E8020C9440031F920F920FB60F921E
:100C400011242F933F938F939F93AF93BF938091E2
:100C5000B1029091B202A091B302B091B40230916E
:100C6000B00223E0230F2D3758F50196A11DB11DC9
:100C70002093B0028093B1029093B202A093B3028A
:100C8000B093B4028091B5029091B602A091B702E0
:100C9000B091B8020196A11DB11D8093B502909349
:100CA000B602A093B702B093B802BF91AF919F91E3
:100CB0008F913F912F910F900FBE0F901F9018951D
:100CC00026E8230F0296A11DB11DD2CF1F920F92CD
:100CD0000FB60F9211240BB60F922F933F934F93A1
:100CE0005F936F937F938F939F93AF93BF93EF9394
:100CF000FF93E0911202F09113021995FF91EF9189
:100D0000BF91AF919F918F917F916F915F914F9123
:100D10003F912F910F900BBE0F900FBE0F901F9021
:100D200018951F920F920FB60F9211240BB60F92C7
:100D30002F933F934F935F936F937F938F939F93E3
:100D4000AF93BF93EF93FF93E0911002F0911102E4
:100D50001995FF91EF91BF91AF919F918F917F91E5
:100D60006F915F914F913F912F910F900BBE0F901C
:100D70000FBE0F901F9018951F920F920FB60F92F3
:100D800011240BB60F922F933F934F935F936F9362
:100D90007F938F939F93AF93BF93EF93FF93E091D4
:100DA0000602F09107021995FF91EF91BF91AF9163
:100DB0009F918F917F916F915F914F913F912F9173
:100DC0000F900BBE0F900FBE0F901F9018951F92A3
:100DD0000F920FB60F9211240BB60F922F933F93E1
:100DE0004F935F936F937F938F939F93AF93BF9333
:100DF000EF93FF93E0910402F09105021995FF91A2
:100E0000EF91BF91AF919F918F917F916F915F9182
:100E10004F913F912F910F900BBE0F900FBE0F90EF
:100E20001F9018951F920F920FB60F9211240BB6B8
:100E30000F922F933F934F935F936F937F938F9373
:100E40009F93AF93BF93EF93FF93E0910E02F091C6
:100E50000F021995FF91EF91BF91AF919F918F91E3
:100E60007F916F915F914F913F912F910F900BBEAA
:100E70000F900FBE0F901F9018951F920F920FB6F4
:100E80000F9211240BB60F922F933F934F935F93C2
:100E90006F937F938F939F93AF93BF93EF93FF9342
:100EA000E0910C02F0910D021995FF91EF91BF9125
:100EB000AF919F918F917F916F915F914F913F91F2
:100EC0002F910F900BBE0F900FBE0F901F90189593
:100ED0001F920F920FB60F9211240BB60F922F9301
:100EE0003F934F935F936F937F938F939F93AF93B2
:100EF000BF93EF93FF93E0910A02F0910B021995D3
:100F0000FF91EF91BF91AF919F918F917F916F91E1
:100F10005F914F913F912F910F900BBE0F900FBE9D
:100F20000F901F9018951F920F920FB60F921124D9
:100F30000BB60F922F933F934F935F936F937F93D3
:100F40008F939F93AF93BF93EF93FF93E09108022A
:100F5000F09109021995FF91EF91BF91AF919F9187
:100F60008F917F916F915F914F913F912F910F9052
:100F70000BBE0F900FBE0F901F9018951F920F92EF
:100F80000FB60F9211240BB60F922F933F934F93EE
:100F90005F936F937F938F939F93AF93BF93EF93E1
:100FA000FF938091B900887F803609F44DC008F026
:100FB00040C0883209F4A9C028F5803109F49DC0E9
:100FC000C8F4882309F4FBC0883009F496C0FF9167
:100FD000EF91BF91AF919F918F917F916F915F91B1
:100FE0004F913F912F910F900BBE0F900FBE0F901E
:100FF0001F901895883109F488C0803241F780939A
:10100000E50214C0803409F49DC040F48033B9F384
:101010008833E9F68093E50285ECB0C0803509F4A9
:1010200085C0883509F496C0883489F60E94E405A5
:10103000CECF883909F48CC038F5883729F050F4C0
:10104000883611F0803719F683E08093E70210921A
:10105000AF0257C0883809F47BC0803919F0803856
:1010600009F0B5CF8091AF02803208F071C0E091F5
:10107000AF0281E08E0F8093AF028091BB00F0E061
:10108000E157FD4F80833DC0803B39F0E0F4803A6A
:1010900009F479C0883A09F09ACF84E08093E70296
:1010A00010928E0210928D02E091BB02F091BC0270
:1010B000199580918D0281110FC081E080938D027E
:1010C00010926D0209C0803C09F4A6CF883C09F457
:1010D000A3CF883B09F07BCFE0918E0281E08E0F99
:1010E00080938E02F0E0E359FD4F80818093BB0036
:1010F00090918E0280918D0229C08091C2028093CE
:10110000BB0085EC8093BC0062CF9091E40280919B
:10111000E302981758F5E091E40281E08E0F809386
:10112000E402F0E0ED53FD4F8081E9CFE091E4026D
:1011300081E08E0F8093E4028091BB00F0E0ED53DC
:10114000FD4F80839091E4028091E3029817C8F2EA
:1011500085E8D8CFE091E40281E08E0F8093E4022D
:101160008091BB00F0E0ED53FD4F80838091E6025B
:1011700081115CCF81E08093C10284EA8093BC003E
:101180001092E70224CF85EC8093BC001092E70216
:101190008091AF02803230F4E091AF02F0E0E1578D
:1011A000FD4F10826091AF0270E0E091B902F091C2
:1011B000BA028FE892E019951092AF0208CF109210
:1011C000E50234CF1F920F920FB60F9211240BB687
:1011D0000F922F933F934F935F936F937F938F93D0
:1011E0009F93AF93BF93EF93FF93E091BF02F09172
:1011F000C0021995FF91EF91BF91AF919F918F918F
:101200007F916F915F914F913F912F910F900BBE06
:101210000F900FBE0F901F901895E9E1F3E0138235
:10122000128288EE93E0A0E0B0E084839583A683E9
:10123000B78388E192E091838083E5E2F3E0138253
:1012400012828AE292E09183808388E084838FEF28
:10125000858389E086838AE087838BE080878CE0C2
:1012600081878DE0828713861486158616861786F9
:1012700081E00C94EA04789484B5826084BD84B5DE
:10128000816084BD85B5826085BD85B5816085BD81
:1012900080916E00816080936E0010928100809139
:1012A00081008260809381008091810081608093C1
:1012B0008100809180008160809380008091B100E6
:1012C00084608093B1008091B00081608093B00011
:1012D0008091910082608093910080919100816063
:1012E0008093910080919000816080939000809124
:1012F000A10082608093A1008091A1008160809311
:10130000A1008091A00081608093A00080912101C4
:10131000826080932101809121018160809321016D
:101320008091200181608093200180917A00846007
:1013300080937A0080917A00826080937A00809115
:101340007A00816080937A0080917A00806880932F
:101350007A001092C10082E00E94EA040E94E20436
:1013600060E083E00E94A40260ED71E081E00E94F1
:101370007D0180E1809381001092800082E19AE7F4
:10138000909387008093860084E1809381008AE9AE
:1013900095E09093C0028093BF0281E080936F003C
:1013A0001092BE021092BD021092EE021092100333
:1013B0000E94220389EE91E09093BC028093BB02CD
:1013C0008AEE91E09093BA028093B90261E084E0E2
:1013D0000E94A40260E082E00E94A4026AED71E033
:1013E00080E00E947D01609102027091030284E01E
:1013F0000E94180219E005EE95ECB92EC0E0D0E08D
:1014000022E0A22E99249A9460E080E00E948B054D
:1014100084E392E00E94390461E080E00E948B0541
:10142000609111037091120390E080E04AE00E9405
:10143000EB0361E084E00E948B0583E492E00E946C
:10144000390461E08AE00E948B05C0901503D090BA
:101450001603E0901703F09018034AE0C701B601A5
:10146000F7FE0EC041E06DE285E293E00E94890440
:1014700066277727CB016C197D098E099F094AE001
:101480000E94EB0361E08DE00E948B0588E492E00E
:101490000E9439048091020290910302019709F0A1
:1014A000C5C08091150390911603A0911703B091C8
:1014B0001803CD97A105B10521F4109214031092E1
:1014C0001303609102027091030284E00E941802EB
:1014D0008091150390911603A0911703B091180302
:1014E000CD97A105B10559F0209102023091030278
:1014F00080910002909101022817390751F00E9453
:10150000E204809102029091030290930102809381
:10151000000281E08093ED0210930F031092EE021F
:1015200010921003609111037091120389E193E00E
:101530000E94B80360911503709116038091170300
:101540009091180389E193E00E94B803F090100392
:1015500020E22F1508F4A0C00E94D5022B013C0107
:101560008091E702811173C0A092E70281E080932D
:10157000E6029092E5021092E402F092E302AFEEEE
:10158000B2E0E3ECF2E080E0F812B6C01092C202E2
:101590008091C20282618093C2028091C102813037
:1015A00009F0AEC01092C1020E94D5026B017C010D
:1015B0008091C2028093BB008091E9029091EA027F
:1015C000A091EB02B091EC02892B8A2B8B2BA1F01E
:1015D0000E94D5024090E9025090EA026090EB022E
:1015E0007090EC026C197D098E099F09461657060A
:1015F0006806790608F44CC08091BC0083FDD8CF02
:10160000B092BC000E94D5026B017C018091E70280
:10161000823009F478C08091E5028F3FE9F1809132
:10162000E5028032C9F18091E50236C010921403C0
:1016300010921303109212031092110310921503CB
:101640001092160310921703109218033ACF80914C
:10165000E9029091EA02A091EB02B091EC02892B91
:101660008A2B8B2B09F47CCF0E94D5022091E902B2
:101670003091EA024091EB025091EC026419750935
:1016800086099709261737074807590708F068CFD2
:101690008091E8020E9440031092EE021092100323
:1016A0001092ED020E94D5022B013C0184E6C82E67
:1016B000D12CE12CF12C0E94D50264197509860900
:1016C0009709683E734081059105A8F381E0C81A27
:1016D000D108E108F10828EE420E23E0521E611CF9
:1016E000711CC114D104E104F10429F7209709F415
:1016F0008BCE0E94000088CE9D9191938F5F44CF46
:101700000093BC007FCF8091E9029091EA02A09102
:10171000EB02B091EC02892B8A2B8B2B09F476CF4C
:101720000E94D5024090E9025090EA026090EB02DC
:101730007090EC026C197D098E099F0946165706B8
:101740006806790608F062CFA3CFA1E21A2EAA1B81
:10175000BB1BFD010DC0AA1FBB1FEE1FFF1FA21761
:10176000B307E407F50720F0A21BB30BE40BF50B5E
:10177000661F771F881F991F1A9469F760957095E7
:10178000809590959B01AC01BD01CF010895EE0FAE
:10179000FF1F881F8BBF0790F691E02D1994F894D6
:0217A000FFCF79
:1017A20001000100FA02FA02FA02FA02FA02FA024D
:1017B200FA02FA0200000000B8038B03E803610397
:1017C20084037103620300000000DE05EB01E803FD
:1017D200E7033000467265632E20636172646961BB
:0C17E2006361002070706D002073000037
:00000001FF
